{
  "_format": "hh-sol-artifact-1",
  "contractName": "CustomPrecompile",
  "sourceName": "contracts/CustomPrecompile.sol",
  "abi": [
    {
      "inputs": [],
      "name": "rip7212Precompile",
      "outputs": [],
      "stateMutability": "view",
      "type": "function"
    }
  ],
  "bytecode": "0x60806040527fbb5a52f42f9c9261ed4361f59422a1e30036e7c32b270c8807a419feca60502360001b6000557f2ba3a8be6b94d5ec80a6d9d1190a436effe50d85a1eee859b8cc6af9bd5c2e1860001b6001557f4cd60b855d442f5b3c7b11eb6c4e0ae7525fe710fab9aa7c77a67f79e6fadd7660001b6002557f2927b10512bae3eddcfe467828128bad2903269919f7086069c8c4df6c73283860001b6003557fc7787964eaac00e5921fb1498a60f4606766b3d9685001558d1a974e7341513e60001b60045534801560d257600080fd5b506103e9806100e26000396000f3fe608060405234801561001057600080fd5b506004361061002b5760003560e01c8063f14965e314610030575b600080fd5b61003861003a565b005b60006040518060400160405280602081526020016001815250905060008061010073ffffffffffffffffffffffffffffffffffffffff166000546001546002546003546004546040516020016100949594939291906101a3565b6040516020818303038152906040526040516100b09190610267565b600060405180830381855afa9150503d80600081146100eb576040519150601f19603f3d011682016040523d82523d6000602084013e6100f0565b606091505b509150915081610135576040517f08c379a000000000000000000000000000000000000000000000000000000000815260040161012c90610301565b60405180910390fd5b8280519060200120818051906020012014610185576040517f08c379a000000000000000000000000000000000000000000000000000000000815260040161017c90610393565b60405180910390fd5b505050565b6000819050919050565b61019d8161018a565b82525050565b600060a0820190506101b86000830188610194565b6101c56020830187610194565b6101d26040830186610194565b6101df6060830185610194565b6101ec6080830184610194565b9695505050505050565b600081519050919050565b600081905092915050565b60005b8381101561022a57808201518184015260208101905061020f565b60008484015250505050565b6000610241826101f6565b61024b8185610201565b935061025b81856020860161020c565b80840191505092915050565b60006102738284610236565b915081905092915050565b600082825260208201905092915050565b7f707265636f6d70696c652072657475726e65642073756363657373203d20666160008201527f6c73650000000000000000000000000000000000000000000000000000000000602082015250565b60006102eb60238361027e565b91506102f68261028f565b604082019050919050565b6000602082019050818103600083015261031a816102de565b9050919050565b7f707265636f6d70696c652072657475726e65642077726f6e672072657475726e60008201527f2064617461000000000000000000000000000000000000000000000000000000602082015250565b600061037d60258361027e565b915061038882610321565b604082019050919050565b600060208201905081810360008301526103ac81610370565b905091905056fea26469706673582212203ead448fd0d9cbd2a86c40e178cce70507023eb7628a3c082e1016ffb73e1ff864736f6c634300081c0033",
  "linkReferences": {},
  "deployedLinkReferences": {}
}